{
  "_format": "hh-sol-artifact-1",
  "contractName": "Balloting",
  "sourceName": "contracts/Balloting.sol",
  "abi": [
    {
      "inputs": [],
      "stateMutability": "nonpayable",
      "type": "constructor"
    },
    {
      "inputs": [],
      "name": "admin",
      "outputs": [
        {
          "internalType": "address",
          "name": "",
          "type": "address"
        }
      ],
      "stateMutability": "view",
      "type": "function"
    },
    {
      "inputs": [],
      "name": "endVoting",
      "outputs": [],
      "stateMutability": "nonpayable",
      "type": "function"
    },
    {
      "inputs": [],
      "name": "getMembers",
      "outputs": [
        {
          "internalType": "address[]",
          "name": "",
          "type": "address[]"
        }
      ],
      "stateMutability": "view",
      "type": "function"
    },
    {
      "inputs": [],
      "name": "getNominees",
      "outputs": [
        {
          "internalType": "address[]",
          "name": "",
          "type": "address[]"
        }
      ],
      "stateMutability": "view",
      "type": "function"
    },
    {
      "inputs": [
        {
          "internalType": "address",
          "name": "_member",
          "type": "address"
        }
      ],
      "name": "isNominated",
      "outputs": [
        {
          "internalType": "bool",
          "name": "",
          "type": "bool"
        }
      ],
      "stateMutability": "view",
      "type": "function"
    },
    {
      "inputs": [
        {
          "internalType": "uint256",
          "name": "",
          "type": "uint256"
        }
      ],
      "name": "memberList",
      "outputs": [
        {
          "internalType": "address",
          "name": "",
          "type": "address"
        }
      ],
      "stateMutability": "view",
      "type": "function"
    },
    {
      "inputs": [
        {
          "internalType": "address",
          "name": "",
          "type": "address"
        }
      ],
      "name": "members",
      "outputs": [
        {
          "internalType": "bool",
          "name": "registered",
          "type": "bool"
        },
        {
          "internalType": "bool",
          "name": "voted",
          "type": "bool"
        },
        {
          "internalType": "bool",
          "name": "nominated",
          "type": "bool"
        }
      ],
      "stateMutability": "view",
      "type": "function"
    },
    {
      "inputs": [
        {
          "internalType": "address",
          "name": "_nominee",
          "type": "address"
        }
      ],
      "name": "nominateMember",
      "outputs": [],
      "stateMutability": "nonpayable",
      "type": "function"
    },
    {
      "inputs": [
        {
          "internalType": "uint256",
          "name": "",
          "type": "uint256"
        }
      ],
      "name": "nominees",
      "outputs": [
        {
          "internalType": "address",
          "name": "",
          "type": "address"
        }
      ],
      "stateMutability": "view",
      "type": "function"
    },
    {
      "inputs": [
        {
          "internalType": "address",
          "name": "_member",
          "type": "address"
        }
      ],
      "name": "registerMember",
      "outputs": [],
      "stateMutability": "nonpayable",
      "type": "function"
    },
    {
      "inputs": [],
      "name": "resetElection",
      "outputs": [],
      "stateMutability": "nonpayable",
      "type": "function"
    },
    {
      "inputs": [],
      "name": "startVoting",
      "outputs": [],
      "stateMutability": "nonpayable",
      "type": "function"
    },
    {
      "inputs": [
        {
          "internalType": "address",
          "name": "_nominee",
          "type": "address"
        }
      ],
      "name": "vote",
      "outputs": [],
      "stateMutability": "nonpayable",
      "type": "function"
    },
    {
      "inputs": [
        {
          "internalType": "address",
          "name": "",
          "type": "address"
        }
      ],
      "name": "votes",
      "outputs": [
        {
          "internalType": "uint256",
          "name": "",
          "type": "uint256"
        }
      ],
      "stateMutability": "view",
      "type": "function"
    },
    {
      "inputs": [],
      "name": "votingActive",
      "outputs": [
        {
          "internalType": "bool",
          "name": "",
          "type": "bool"
        }
      ],
      "stateMutability": "view",
      "type": "function"
    },
    {
      "inputs": [],
      "name": "winner",
      "outputs": [
        {
          "internalType": "address",
          "name": "",
          "type": "address"
        }
      ],
      "stateMutability": "view",
      "type": "function"
    }
  ],
  "bytecode": "0x608060405234801561001057600080fd5b50336000806101000a81548173ffffffffffffffffffffffffffffffffffffffff021916908373ffffffffffffffffffffffffffffffffffffffff160217905550611c0e806100606000396000f3fe608060405234801561001057600080fd5b50600436106101005760003560e01c8063b307fc6d11610097578063e8f3052311610066578063e8f305231461028b578063eec6b91e14610295578063f851a440146102c5578063fcb4888e146102e357610100565b8063b307fc6d14610203578063c3403ddf14610233578063d8bff5a51461023d578063dfbf53ae1461026d57610100565b80636d3b2356116100d35780636d3b23561461018f5780636dd7d8ea146101ab5780639636f67c146101c75780639eab5253146101e557610100565b806308ae4b0c146101055780631ec6b60a146101375780633a3e6c8114610141578063408e272714610171575b600080fd5b61011f600480360381019061011a919061148c565b6102ff565b60405161012e939291906114d4565b60405180910390f35b61013f610350565b005b61015b6004803603810190610156919061148c565b6103fb565b604051610168919061150b565b60405180910390f35b610179610454565b604051610186919061150b565b60405180910390f35b6101a960048036038101906101a4919061148c565b610467565b005b6101c560048036038101906101c0919061148c565b610743565b005b6101cf6109f2565b6040516101dc91906115e4565b60405180910390f35b6101ed610a80565b6040516101fa91906115e4565b60405180910390f35b61021d6004803603810190610218919061163c565b610b0e565b60405161022a9190611678565b60405180910390f35b61023b610b4d565b005b6102576004803603810190610252919061148c565b610d9d565b60405161026491906116a2565b60405180910390f35b610275610db5565b6040516102829190611678565b60405180910390f35b610293610ddb565b005b6102af60048036038101906102aa919061163c565b61113e565b6040516102bc9190611678565b60405180910390f35b6102cd61117d565b6040516102da9190611678565b60405180910390f35b6102fd60048036038101906102f8919061148c565b6111a1565b005b60016020528060005260406000206000915090508060000160009054906101000a900460ff16908060000160019054906101000a900460ff16908060000160029054906101000a900460ff16905083565b60008054906101000a900473ffffffffffffffffffffffffffffffffffffffff1673ffffffffffffffffffffffffffffffffffffffff163373ffffffffffffffffffffffffffffffffffffffff16146103de576040517f08c379a00000000000000000000000000000000000000000000000000000000081526004016103d590611740565b60405180910390fd5b6001600560146101000a81548160ff021916908315150217905550565b6000600160008373ffffffffffffffffffffffffffffffffffffffff1673ffffffffffffffffffffffffffffffffffffffff16815260200190815260200160002060000160029054906101000a900460ff169050919050565b600560149054906101000a900460ff1681565b600160003373ffffffffffffffffffffffffffffffffffffffff1673ffffffffffffffffffffffffffffffffffffffff16815260200190815260200160002060000160009054906101000a900460ff166104f6576040517f08c379a00000000000000000000000000000000000000000000000000000000081526004016104ed906117d2565b60405180910390fd5b3373ffffffffffffffffffffffffffffffffffffffff168173ffffffffffffffffffffffffffffffffffffffff1603610564576040517f08c379a000000000000000000000000000000000000000000000000000000000815260040161055b9061183e565b60405180910390fd5b600160008273ffffffffffffffffffffffffffffffffffffffff1673ffffffffffffffffffffffffffffffffffffffff16815260200190815260200160002060000160009054906101000a900460ff166105f3576040517f08c379a00000000000000000000000000000000000000000000000000000000081526004016105ea906118d0565b60405180910390fd5b600160008273ffffffffffffffffffffffffffffffffffffffff1673ffffffffffffffffffffffffffffffffffffffff16815260200190815260200160002060000160029054906101000a900460ff1615610683576040517f08c379a000000000000000000000000000000000000000000000000000000000815260040161067a9061193c565b60405180910390fd5b60018060008373ffffffffffffffffffffffffffffffffffffffff1673ffffffffffffffffffffffffffffffffffffffff16815260200190815260200160002060000160026101000a81548160ff0219169083151502179055506002819080600181540180825580915050600190039060005260206000200160009091909190916101000a81548173ffffffffffffffffffffffffffffffffffffffff021916908373ffffffffffffffffffffffffffffffffffffffff16021790555050565b600160003373ffffffffffffffffffffffffffffffffffffffff1673ffffffffffffffffffffffffffffffffffffffff16815260200190815260200160002060000160009054906101000a900460ff166107d2576040517f08c379a00000000000000000000000000000000000000000000000000000000081526004016107c9906117d2565b60405180910390fd5b600560149054906101000a900460ff16610821576040517f08c379a0000000000000000000000000000000000000000000000000000000008152600401610818906119a8565b60405180910390fd5b600160003373ffffffffffffffffffffffffffffffffffffffff1673ffffffffffffffffffffffffffffffffffffffff16815260200190815260200160002060000160019054906101000a900460ff16156108b1576040517f08c379a00000000000000000000000000000000000000000000000000000000081526004016108a890611a14565b60405180910390fd5b600160008273ffffffffffffffffffffffffffffffffffffffff1673ffffffffffffffffffffffffffffffffffffffff16815260200190815260200160002060000160029054906101000a900460ff16610940576040517f08c379a000000000000000000000000000000000000000000000000000000000815260040161093790611aa6565b60405180910390fd5b60018060003373ffffffffffffffffffffffffffffffffffffffff1673ffffffffffffffffffffffffffffffffffffffff16815260200190815260200160002060000160016101000a81548160ff021916908315150217905550600460008273ffffffffffffffffffffffffffffffffffffffff1673ffffffffffffffffffffffffffffffffffffffff16815260200190815260200160002060008154809291906109ea90611af5565b919050555050565b60606002805480602002602001604051908101604052809291908181526020018280548015610a7657602002820191906000526020600020905b8160009054906101000a900473ffffffffffffffffffffffffffffffffffffffff1673ffffffffffffffffffffffffffffffffffffffff1681526020019060010190808311610a2c575b5050505050905090565b60606003805480602002602001604051908101604052809291908181526020018280548015610b0457602002820191906000526020600020905b8160009054906101000a900473ffffffffffffffffffffffffffffffffffffffff1673ffffffffffffffffffffffffffffffffffffffff1681526020019060010190808311610aba575b5050505050905090565b60038181548110610b1e57600080fd5b906000526020600020016000915054906101000a900473ffffffffffffffffffffffffffffffffffffffff1681565b60008054906101000a900473ffffffffffffffffffffffffffffffffffffffff1673ffffffffffffffffffffffffffffffffffffffff163373ffffffffffffffffffffffffffffffffffffffff1614610bdb576040517f08c379a0000000000000000000000000000000000000000000000000000000008152600401610bd290611740565b60405180910390fd5b6000600560146101000a81548160ff0219169083151502179055506000805b600280549050811015610d9957816004600060028481548110610c2057610c1f611b3d565b5b9060005260206000200160009054906101000a900473ffffffffffffffffffffffffffffffffffffffff1673ffffffffffffffffffffffffffffffffffffffff1673ffffffffffffffffffffffffffffffffffffffff168152602001908152602001600020541115610d8c576004600060028381548110610ca457610ca3611b3d565b5b9060005260206000200160009054906101000a900473ffffffffffffffffffffffffffffffffffffffff1673ffffffffffffffffffffffffffffffffffffffff1673ffffffffffffffffffffffffffffffffffffffff16815260200190815260200160002054915060028181548110610d2057610d1f611b3d565b5b9060005260206000200160009054906101000a900473ffffffffffffffffffffffffffffffffffffffff16600560006101000a81548173ffffffffffffffffffffffffffffffffffffffff021916908373ffffffffffffffffffffffffffffffffffffffff1602179055505b8080600101915050610bfa565b5050565b60046020528060005260406000206000915090505481565b600560009054906101000a900473ffffffffffffffffffffffffffffffffffffffff1681565b60008054906101000a900473ffffffffffffffffffffffffffffffffffffffff1673ffffffffffffffffffffffffffffffffffffffff163373ffffffffffffffffffffffffffffffffffffffff1614610e69576040517f08c379a0000000000000000000000000000000000000000000000000000000008152600401610e6090611740565b60405180910390fd5b60005b600280549050811015610f6a57600060028281548110610e8f57610e8e611b3d565b5b9060005260206000200160009054906101000a900473ffffffffffffffffffffffffffffffffffffffff1690506000600160008373ffffffffffffffffffffffffffffffffffffffff1673ffffffffffffffffffffffffffffffffffffffff16815260200190815260200160002060000160026101000a81548160ff0219169083151502179055506000600460008373ffffffffffffffffffffffffffffffffffffffff1673ffffffffffffffffffffffffffffffffffffffff16815260200190815260200160002081905550508080600101915050610e6c565b506000600560006101000a81548173ffffffffffffffffffffffffffffffffffffffff021916908373ffffffffffffffffffffffffffffffffffffffff16021790555060005b60038054905081101561111f57600060038281548110610fd357610fd2611b3d565b5b9060005260206000200160009054906101000a900473ffffffffffffffffffffffffffffffffffffffff1690506000600160008373ffffffffffffffffffffffffffffffffffffffff1673ffffffffffffffffffffffffffffffffffffffff16815260200190815260200160002060000160006101000a81548160ff0219169083151502179055506000600160008373ffffffffffffffffffffffffffffffffffffffff1673ffffffffffffffffffffffffffffffffffffffff16815260200190815260200160002060000160016101000a81548160ff0219169083151502179055506000600160008373ffffffffffffffffffffffffffffffffffffffff1673ffffffffffffffffffffffffffffffffffffffff16815260200190815260200160002060000160026101000a81548160ff021916908315150217905550508080600101915050610fb0565b506002600061112e91906113eb565b6003600061113c91906113eb565b565b6002818154811061114e57600080fd5b906000526020600020016000915054906101000a900473ffffffffffffffffffffffffffffffffffffffff1681565b60008054906101000a900473ffffffffffffffffffffffffffffffffffffffff1681565b60008054906101000a900473ffffffffffffffffffffffffffffffffffffffff1673ffffffffffffffffffffffffffffffffffffffff163373ffffffffffffffffffffffffffffffffffffffff161461122f576040517f08c379a000000000000000000000000000000000000000000000000000000000815260040161122690611740565b60405180910390fd5b600160008273ffffffffffffffffffffffffffffffffffffffff1673ffffffffffffffffffffffffffffffffffffffff16815260200190815260200160002060000160009054906101000a900460ff16156112bf576040517f08c379a00000000000000000000000000000000000000000000000000000000081526004016112b690611bb8565b60405180910390fd5b604051806060016040528060011515815260200160001515815260200160001515815250600160008373ffffffffffffffffffffffffffffffffffffffff1673ffffffffffffffffffffffffffffffffffffffff16815260200190815260200160002060008201518160000160006101000a81548160ff02191690831515021790555060208201518160000160016101000a81548160ff02191690831515021790555060408201518160000160026101000a81548160ff0219169083151502179055509050506003819080600181540180825580915050600190039060005260206000200160009091909190916101000a81548173ffffffffffffffffffffffffffffffffffffffff021916908373ffffffffffffffffffffffffffffffffffffffff16021790555050565b5080546000825590600052602060002090810190611409919061140c565b50565b5b8082111561142557600081600090555060010161140d565b5090565b600080fd5b600073ffffffffffffffffffffffffffffffffffffffff82169050919050565b60006114598261142e565b9050919050565b6114698161144e565b811461147457600080fd5b50565b60008135905061148681611460565b92915050565b6000602082840312156114a2576114a1611429565b5b60006114b084828501611477565b91505092915050565b60008115159050919050565b6114ce816114b9565b82525050565b60006060820190506114e960008301866114c5565b6114f660208301856114c5565b61150360408301846114c5565b949350505050565b600060208201905061152060008301846114c5565b92915050565b600081519050919050565b600082825260208201905092915050565b6000819050602082019050919050565b61155b8161144e565b82525050565b600061156d8383611552565b60208301905092915050565b6000602082019050919050565b600061159182611526565b61159b8185611531565b93506115a683611542565b8060005b838110156115d75781516115be8882611561565b97506115c983611579565b9250506001810190506115aa565b5085935050505092915050565b600060208201905081810360008301526115fe8184611586565b905092915050565b6000819050919050565b61161981611606565b811461162457600080fd5b50565b60008135905061163681611610565b92915050565b60006020828403121561165257611651611429565b5b600061166084828501611627565b91505092915050565b6116728161144e565b82525050565b600060208201905061168d6000830184611669565b92915050565b61169c81611606565b82525050565b60006020820190506116b76000830184611693565b92915050565b600082825260208201905092915050565b7f4f6e6c79207468652061646d696e2063616e20706572666f726d20746869732060008201527f616374696f6e0000000000000000000000000000000000000000000000000000602082015250565b600061172a6026836116bd565b9150611735826116ce565b604082019050919050565b600060208201905081810360008301526117598161171d565b9050919050565b7f4f6e6c792072656769737465726564206d656d626572732063616e207065726660008201527f6f726d207468697320616374696f6e0000000000000000000000000000000000602082015250565b60006117bc602f836116bd565b91506117c782611760565b604082019050919050565b600060208201905081810360008301526117eb816117af565b9050919050565b7f596f752063616e6e6f74206e6f6d696e61746520796f757273656c6600000000600082015250565b6000611828601c836116bd565b9150611833826117f2565b602082019050919050565b600060208201905081810360008301526118578161181b565b9050919050565b7f4e6f6d696e6565206d75737420626520612072656769737465726564206d656d60008201527f6265720000000000000000000000000000000000000000000000000000000000602082015250565b60006118ba6023836116bd565b91506118c58261185e565b604082019050919050565b600060208201905081810360008301526118e9816118ad565b9050919050565b7f4e6f6d696e656520697320616c7265616479206e6f6d696e6174656400000000600082015250565b6000611926601c836116bd565b9150611931826118f0565b602082019050919050565b6000602082019050818103600083015261195581611919565b9050919050565b7f566f74696e67206973206e6f7420616374697665000000000000000000000000600082015250565b60006119926014836116bd565b915061199d8261195c565b602082019050919050565b600060208201905081810360008301526119c181611985565b9050919050565b7f596f75206861766520616c726561647920766f74656400000000000000000000600082015250565b60006119fe6016836116bd565b9150611a09826119c8565b602082019050919050565b60006020820190508181036000830152611a2d816119f1565b9050919050565b7f596f752063616e206f6e6c7920766f746520666f72206e6f6d696e617465642060008201527f6d656d6265727300000000000000000000000000000000000000000000000000602082015250565b6000611a906027836116bd565b9150611a9b82611a34565b604082019050919050565b60006020820190508181036000830152611abf81611a83565b9050919050565b7f4e487b7100000000000000000000000000000000000000000000000000000000600052601160045260246000fd5b6000611b0082611606565b91507fffffffffffffffffffffffffffffffffffffffffffffffffffffffffffffffff8203611b3257611b31611ac6565b5b600182019050919050565b7f4e487b7100000000000000000000000000000000000000000000000000000000600052603260045260246000fd5b7f4d656d62657220697320616c7265616479207265676973746572656400000000600082015250565b6000611ba2601c836116bd565b9150611bad82611b6c565b602082019050919050565b60006020820190508181036000830152611bd181611b95565b905091905056fea2646970667358221220f1c98680debdf1926a95eaac5f35823e544efc5eae76c7acad5556e247a2c9cd64736f6c63430008180033",
  "linkReferences": {},
  "deployedLinkReferences": {}
}